:100000000C942A000C9447000C9447000C94470071
:100010000C9447000C9447000C9447000C94470044
:100020000C9447000C9447000C9447000C942E0944
:100030000C9461090C9447000C9447000C94470001
:100040000C9447000C9447000C9447000C94470014
:100050000C94470011241FBECFE5D4E0DEBFCDBF16
:1000600011E0A0E6B0E0E6E4FAE102C005900D92EE
:10007000A432B107D9F722E0A4E2B1E001C01D9299
:10008000A932B207E1F70E948A080C94210D0C9462
:1000900000006A3048F09AE0990F292F220F220FB2
:1000A000920F6917C8F701C09AE070E09B01899F21
:1000B000200D311D1124C9010895BF92CF92DF9206
:1000C000EF92FF920F931F93CF93DF93EC017B018D
:1000D0006C0128E0C20ED11C6894BB24B3F88B01DC
:1000E0000A561F4F188A0E949E09888B813229F474
:1000F0001E8A1B8A1C8A188A57C18A3051F461E013
:1001000080E00E940D0880E690E00E94D3091E8ADC
:100110004BC18B3361F4D8018C918A3018F48F5F16
:100120008C9302C0F80110821B8A1C8ADBCF8032BC
:1001300079F4D601EB2D1D92EA95E9F7DE01EB2D5E
:100140001D92EA95E9F78C898F5F8C8B1B8ACACF49
:1001500060ED680F6B3008F07CC08A3329F48B891E
:100160008F5F8B8B198ABECF688B89890E9449006B
:100170008A8B9C89913051F59B8991110BC0F701B5
:10018000EA56FF4F9081F701E90FF11DE05BFF4F49
:1001900080831CC0913059F4F701EA56FF4F9081DB
:1001A000F701E90FF11DEC59FF4F80830FC092302A
:1001B00059F4F701EA56FF4F9081F701E90FF11D5D
:1001C000E858FF4F808302C01B8A41C08C8982306F
:1001D00069F58B8981110CC08A89F701EA56FF4FB6
:1001E0009081F701E90FF11DE65AFF4F80831EC091
:1001F000813061F48A89F701EA56FF4F9081F70157
:10020000E90FF11DE259FF4F808310C0823061F485
:100210008A89F701EA56FF4F9081F701E90FF11D36
:10022000EE57FF4F808302C01B8A11C08C89833038
:1002300071F48B8981110BC08889F701EA56FF4F51
:100240009081F701E90FF11DE457FF4F8083888902
:10025000898B88891F928F938CE690E09F938F9370
:10026000DF93CF930E94240A8E01085F1F4F6C2FEB
:100270007D2FC8010E94ED09888190E00E94E50968
:100280000F900F900F900F900F900F90892B71F09F
:10029000F701EA56FF4F8081B801D701E8E08E9F51
:1002A000A00DB11D1124CD010E94F809F701EA56F5
:1002B000FF4F8081882309F477C0D12C6894CC2427
:1002C000C3F88F01882309F469C0CD2DD0E090E0F8
:1002D000D701AC0FBD1FA05BBF4FF701E80FF91F9F
:1002E000E05BFF4F3C912081321358C0D701AC0F27
:1002F000BD1FAC59BF4FF701E80FF91FEC59FF4F75
:100300003C91208132134AC0D701AC0FBD1FA858C1
:10031000BF4FF701E80FF91FE858FF4F3C912081CC
:1003200032133CC0D701AC0FBD1FA457BF4FF7011C
:10033000E80FF91FE457FF4F3C91208132132EC084
:10034000880F991F880F991F880F991FF701E80FD1
:10035000F91FDF012C2D1D922A95E9F7D8012C9168
:10036000C701820F911DFC01E05BFF4F1082749664
:100370001082749610827496108221502C938FE60E
:1003800090E00E94D309CE01880F991F880F991F12
:10039000880F991F8E0D9F1D0E94D309D394F801D9
:1003A0008081D81608F48ECFDF91CF911F910F91E5
:1003B000FF90EF90DF90CF90BF90089511BA8A9888
:1003C0008AB3826F8ABB12BA82B38C6782BB0895EC
:1003D000CF93DF93CDB7DEB7C45CD1090FB6F894E5
:1003E000DEBF0FBECDBF80B360B2CE0101960E94CA
:1003F000BB081D829CE098878EE18F831E822A8134
:100400002A872B812B872C812C871D861E8621E035
:100410002F879A8B898B188A19A61AA61BA618A64D
:100420001FA21CA61DA6FE0177969E01215E3F4FCE
:1004300088E0D901482F1D924A95E9F7DF011D9206
:100440008A95E9F7CC53DF4F1882C45CD04087E42B
:1004500090E00E94880980E090E09E01225D3F4F7D
:100460006901DE0157965D01E22EFD2C0A2F1B2D3E
:10047000812C912C35C00E949E09813219F481E0B3
:100480008DA703C08DA5813039F4B601C5010E9446
:100490005D008DA58130C9F39601AE01435F5F4FCA
:1004A000BE01675F7F4FCE0105960E94740480B342
:1004B000262D287030E0887090E051E040E08217EF
:1004C000930714F0582D492D852F942FBFEF2FEA55
:1004D00031E0B15020403040E1F700C0000060B290
:1004E000009749F281309105B1F4772473940E940A
:1004F0009E09813211F47DA604C08DA5813009F0DA
:1005000098C06E2D7F2D802F912F0E945D008DA5AC
:100510008130B9F38EC08230910569F577247394E8
:100520000E949E09813211F47DA603C08DA5813001
:1005300049F46E2D7F2D802F912F0E945D008DA597
:100540008130B9F3CE010D960E94650680B3262D49
:10055000287030E0887090E0821793070CF446C052
:100560004FEF8FEA91E0415080409040E1F700C0AA
:10057000000060B2D5CF8330910509F0B1CF772468
:1005800073940E949E09813211F47DA603C08DA54B
:10059000813049F46E2D7F2D802F912F0E945D00B8
:1005A0008DA58130B9F3CE010D960E943F0780B32F
:1005B000262D287030E0887090E0821793070CF1A8
:1005C000AFEFBFEA21E0A150B0402040E1F700C00A
:1005D000000060B2D6CF3FEF4FEA81E0315040409B
:1005E0008040E1F700C0000060B298CF9FEFAFEA13
:1005F000B1E09150A040B040E1F700C0000060B20F
:10060000BECF2FEF3FEA41E0215030404040E1F7BC
:1006100000C0000060B2882D992D62CF8FEF9FEA55
:10062000A1E081509040A040E1F700C0000060B21E
:100630005ECFBE01675F7F4FCE0105960E94F90431
:1006400080B3887090E0262D287030E082179307E1
:1006500014F2E4CFAF92BF92CF92DF92EF92FF926B
:100660000F931F93CF93DF93CDB7DEB727970FB6C6
:10067000F894DEBF0FBECDBF5C016B017A0189012A
:100680000E94AA08BE016C5F7F4FCE0101960E94B6
:10069000EC089F81F6018381981333C09E8182818B
:1006A00098132FC09D81818198132BC09B81F501E8
:1006B0008381981326C09A818281981322C09981E0
:1006C000818198131EC081E0F7018183828182308D
:1006D00069F018F4813031F014C0833059F084305F
:1006E00069F00FC081E0F70186830BC081E0F7015C
:1006F000878307C081E0F701808703C081E0F701AD
:1007000081879B81F7018581981320C02A8184818C
:1007100028131CC029818381281318C0118282816B
:10072000823061F018F4813031F010C0833049F02C
:10073000843051F00BC0F701168208C0F701178210
:1007400005C0F701108602C0F701118680E061E064
:1007500058E0D801AA56BF4F282F30E0F801E20F29
:10076000F31FE05BFF4F408194132EC0F801E20FAE
:10077000F31FEC59FF4F7A814081741325C0F801B3
:10078000E20FF31FE858FF4F7981408174131CC0BA
:10079000F801E20FF31FE457FF4F4081423061F050
:1007A00018F4413031F010C0433049F0443051F07A
:1007B0000BC0F701668308C0F701678305C0F70126
:1007C000608702C0F7016187F801E20FF31FE65A64
:1007D000FF4F408194134FC0F801E20FF31FE2591D
:1007E000FF4F7A814081741346C0F801E20FF31F76
:1007F000EE57FF4F7981408174133DC0F801E20F3D
:10080000F31FE457FF4F4081423061F018F441304C
:1008100031F010C0433049F0443051F00BC0F701C3
:10082000168208C0F701178205C0F701108602C0C2
:10083000F7011186F901EE0FFF1FEE0FFF1FEE0FFC
:10084000FF1F6F01C00ED11EF601452F11924A9570
:10085000E9F7200F311FF901E05BFF4F108274961A
:100860001082749610827E9710827496108274960D
:1008700010823A9610828F5F2C91281708F06CCF67
:10088000F7018681813011F4DC9801C0DC9AF70110
:100890008781813011F4DD9801C0DD9AF7018085F0
:1008A000813011F4DE9801C0DE9AF7018185813034
:1008B00011F4DF9801C0DF9AF7018181813011F4D2
:1008C000D99A01C0D99827960FB6F894DEBF0FBE0B
:1008D000CDBFDF91CF911F910F91FF90EF90DF90EF
:1008E000CF90BF90AF9008958F929F92AF92BF929A
:1008F000CF92DF92EF92FF920F931F93CF93DF93EC
:10090000CDB7DEB763970FB6F894DEBF0FBECDBF8D
:100910007C016B015A0149018CE00E944A080E9447
:10092000AA08BE016C5F7F4FCE0101960E94EC08C1
:1009300089811F928F938A811F928F938B811F923F
:100940008F938CEB90E09F938F938E01085F1F4FE6
:100950001F930F930E94240A60E080E00E940D081C
:100960008BEC90E00E94300860E086E00E940D0869
:10097000C8010E9430088F811F928F938E811F9231
:100980008F938D811F928F9382ED90E09F938F9331
:100990001F930F930E94240A61E080E00E940D08DB
:1009A00083EE90E00E94300861E086E00E940D082E
:1009B000C8010E9430089401A501B601C7010E9438
:1009C0002A030FB6F894DEBF0FBECDBF63960FB6F5
:1009D000F894DEBF0FBECDBFDF91CF911F910F9175
:1009E000FF90EF90DF90CF90BF90AF909F908F904F
:1009F0000895AF92BF92CF92DF92EF92FF920F9342
:100A00001F93CF93DF93CDB7DEB72C970FB6F89433
:100A1000DEBF0FBECDBF8C017B01D0B2D6FADD2484
:100A2000D0F880B385FBCC24C0F880B382FBAA2425
:100A3000A0F8B0B280B38CE00E944A08B4FC04C0B5
:100A4000F80180818F5F8083D11004C0F80180811C
:100A500081508083F8018081823009F455C028F4E8
:100A6000882361F0813069F1DBC0843009F492C0E1
:100A700008F46DC0853009F4B0C0D2C061E080E0F8
:100A80000E940D088AEE90E00E943008C1100CC050
:100A9000F8018381873118F48F5F838305C0F801E3
:100AA0001382AA2051F0BEC0A110BCC0F8018381FE
:100AB000882319F081508383B5C087E1F8018383CF
:100AC000B1C061E080E00E940D088FEE90E00E94CE
:100AD0003008C1100CC0F80182818B3318F48F5F8D
:100AE000828305C0F8011282AA2051F09BC0A11098
:100AF00099C0F8018281882319F08150828392C0C5
:100B00008BE3F80182838EC061E080E00E940D08D3
:100B100083EF90E00E943008C1100CC0F801818181
:100B20008B3318F48F5F818305C0F8011182AA20EE
:100B300051F078C0A11076C0F8018181882319F0A6
:100B4000815081836FC08BE3F80181836BC061E0CA
:100B500080E00E940D0887EF90E00E943008C110ED
:100B60000CC0F70181818F3118F48F5F818305C03C
:100B7000F7011182AA2051F055C0A11053C0F7010E
:100B80008181882319F0815081834CC08FE1F70166
:100B9000818348C061E080E00E940D088BEF90E007
:100BA0000E943008C1100CC0F70182818C3018F40B
:100BB0008F5F828305C0F7011282AA2051F032C0F4
:100BC000A11030C0F7018281882319F081508283FF
:100BD00029C08CE0F701828325C061E080E00E949B
:100BE0000D0880E091E00E943008C1100CC0F701B0
:100BF0008381833618F48F5F838305C0F7011382E6
:100C0000AA2051F00FC0A1100DC0F70183818823E5
:100C100019F08150838306C083E6F701838302C005
:100C2000F8011082F80181811F928F9382811F92B7
:100C30008F9383811F928F938CEB90E09F938F9380
:100C40008E010F5F1F4F1F930F930E94240A60E0D5
:100C500080E00E940D0885E091E00E94300860E08D
:100C600086E00E940D08C8010E943008F7018381C8
:100C70001F928F9382811F928F9381811F928F93F6
:100C800082ED90E09F938F931F930F930E94240A0D
:100C900061E086E00E940D08C8010E9430080FB68E
:100CA000F894DEBF0FBECDBF2C960FB6F894DEBF12
:100CB0000FBECDBFDF91CF911F910F91FF90EF90AD
:100CC000DF90CF90BF90AF900895CF92DF92EF92D8
:100CD000FF920F931F93CF93DF93CDB7DEB72C977F
:100CE0000FB6F894DEBF0FBECDBF8C01F0B2F6FA9E
:100CF000FF24F0F880B385FBEE24E0F880B382FB9C
:100D0000CC24C0F8D0B280B38CE00E944A08D4FC56
:100D100004C0F80180818F5F8083F11004C0F80166
:100D2000808181508083F8018081813041F120F001
:100D3000823009F447C069C061E080E00E940D087C
:100D40008AEE90E00E943008E1100CC0F801858125
:100D5000873118F48F5F858305C0F8011582CC2098
:100D600051F055C0C11053C0F8018581882319F096
:100D7000815085834CC087E1F801858348C061E0DC
:100D800080E00E940D088FEE90E00E943008E11094
:100D90000CC0F80184818B3318F48F5F848305C005
:100DA000F8011482CC2051F032C0C11030C0F801DB
:100DB0008481882319F08150848329C08BE3F80152
:100DC000848325C061E080E00E940D0883EF90E0FD
:100DD0000E943008E1100CC0F80183818B3318F4B5
:100DE0008F5F838305C0F8011382CC2051F00FC0C0
:100DF000C1100DC0F8018381882319F081508383CD
:100E000006C08BE3F801838302C0F8011082F80169
:100E100083811F928F9384811F928F9385811F926C
:100E20008F938CEB90E09F938F938E010F5F1F4FFA
:100E30001F930F930E94240A60E080E00E940D0837
:100E40008BE091E00E94300861E088E00E940D088C
:100E5000C8010E9430080FB6F894DEBF0FBECDBFA8
:100E60002C960FB6F894DEBF0FBECDBFDF91CF91A9
:100E70001F910F91FF90EF90DF90CF900895EF9228
:100E8000FF920F931F93CF93DF9300D000D0CDB785
:100E9000DEB78C01E0B2F0B2F2FAFF24F0F88CE099
:100EA0000E944A08E5FC0DC0F8018281843018F4E4
:100EB0008F5F828306C081E0F8018283FF2051F0BA
:100EC0000CC0F1100AC0F8018281823018F0815004
:100ED000828303C084E0F8018283F80182814AE0C2
:100EE000BE016F5F7F4F90E00E94FF0960E080E0ED
:100EF0000E940D0884E191E00E94300860E08EE0DD
:100F00000E940D08CE0101960E9430080F900F90AC
:100F10000F900F90DF91CF911F910F91FF90EF9065
:100F2000089584EA86BF06B607FEFDCF089584E9DA
:100F300086BF089583B984E886BF06B607FEFDCF55
:100F4000089584EC86BF06B607FEFDCF83B10895F1
:100F500084E886BF06B607FEFDCF83B10895C69A22
:100F600000C000C0C6980895CF93DF93D82F6623A2
:100F700011F0C49A01C0C498C59887B38F6087BB2D
:100F8000C8B3C07F8D2F82958F708C2B88BB0E9439
:100F9000AF07DF70DC2BD8BB0E94AF07CF60C8BBA8
:100FA000DF91CF910895882311F0C49A01C0C498AD
:100FB000C59A87B3807F87BBC69A00C000C096B32E
:100FC000C69800C000C0C69A00C000C026B32F70EB
:100FD000892F8295807FC698822B0895CF93DF93C7
:100FE000C9EED3E080E00E94D307882314F4219750
:100FF000C9F785E090E00197F1F780E00E94D30700
:10100000DF91CF910895CF93C82F0E94EE0760E043
:101010008C2F0E94B407CF910895611104C08058AD
:101020000E940308089580540E940308089581E0F7
:101030000E9403080895CF93C82F0E94EE07CA307C
:1010400049F4803410F080E001C080E480580E94B0
:10105000030804C061E08C2F0E94B407CF9108956B
:101060000F931F93CF93DF93FC01EC0121968081B6
:10107000882359F08F010B5E1F4F0E941B08899136
:10108000882319F0C017D107C1F7DF91CF911F91C5
:101090000F9108951F93CF93DF93182F87B38F6716
:1010A00087BB81B3806781BB2FEF8FE593E0215031
:1010B00080409040E1F700C00000C19AC09A0E94B1
:1010C000AF078FEF9BE60197F1F700C000000E9489
:1010D000AF07C0EBD0E0CE010197F1F70E94AF0758
:1010E000CE010197F1F7C0980E94AF072197F1F761
:1010F00088E20E94030888E00E9403080E94170803
:1011000086E00E940308812F0E940308DF91CF919F
:101110001F9108950E94DE010E94E80180E090E0A6
:101120000895282F207730E0A901440F551F220F82
:10113000331F220F331F220F331F240F351F359506
:1011400027953595279535952795359527958F7052
:10115000820F08950E94910780ED0E949A078EE009
:101160000E949A0780E20E949A0788E00E949A07EC
:101170000E9497070895CF93DF93EC010E94910797
:1011800080ED0E949A0780E00E949A070E949707CC
:101190000E94910781ED0E949A070E94A1070E9478
:1011A000A1070E94A1070E94A1070E9491088883BD
:1011B0000E94A1070E94910889830E94A1070E94B2
:1011C00091088A830E94A8070E9491088B830E943D
:1011D0009707DF91CF9108950F931F93CF93DF93DC
:1011E0008C01EB010E94910780ED0E949A0780E03C
:1011F0000E949A070E9497070E94910781ED0E9422
:101200009A070E94A1070E949108F80180830E941A
:10121000A1070E949108F80181830E94A1070E9402
:101220009108F80182830E94A1070E949108888397
:101230000E94A1070E94910889830E94A1070E9431
:1012400091088A830E94A8070E9491088B830E94BC
:101250009707DF91CF911F910F9108951F920F92E1
:101260000FB60F9211242F933F934F935F938F9359
:101270009F93EF93FF932BB13CB12871809126018E
:1012800090E001968F7799274091250150E08417CF
:10129000950739F080932601FC01E75DFE4F30830E
:1012A00001C022E020932401FF91EF919F918F9143
:1012B0005F914F913F912F910F900FBE0F901F9014
:1012C00018951F920F920FB60F9211248F939F9330
:1012D000EF93FF939091280180912701981771F067
:1012E0008091270190E001968F77992780932701BD
:1012F000FC01E755FE4F80818CB901C05598FF91E4
:10130000EF919F918F910F900FBE0F901F901895A6
:10131000F894109228011092270110922601109241
:101320002501789499231CF422E02BB99F7790BD76
:1013300089B988E98AB986E880BD0895F8949091C2
:10134000260180912501981304C0789480E091E0F3
:10135000089578948091250190E001968F779927E0
:1013600080932501FC01E75DFE4F208180912401DF
:1013700090E0982F8827820F911D089540912801B1
:1013800050E04F5F5F4F4F7755272091270130E0A6
:1013900042175307D1F3FA01E755FE4F808340937C
:1013A0002801559A0895CF93DF93EC018881882313
:1013B00031F021960E94BE0989918111FBCFDF9106
:1013C000CF91089585FD0C94270C806291110C94A7
:1013D000270C81568A51D8F70895FB01DC010D9046
:1013E0000020E9F7119701900D920020E1F7089590
:1013F000FB01DC0101900D920020E1F70895BB276D
:101400004A3031F4992322F4BDE2909581959F4FA3
:101410000C940B0ABB27FB015527AA27880F991F9D
:10142000AA1FA41710F0A41B83955051B9F7A05D13
:10143000AA3308F0A95DA193009779F7B111B19390
:101440001192CB010C94400CAEE0B0E0EAE2FAE07D
:101450000C94F80C0D891E8986E08C831A8309830D
:101460008FEF9FE79E838D83AE01475E5F4F6F894D
:10147000788DCE0101960E94460AEF81F885E00F33
:10148000F11F10822E96E4E00C94140DABE0B0E056
:10149000ECE4FAE00C94EA0C6C017B018A01FC019B
:1014A00017821682838181FFCCC1CE0101963C0157
:1014B000F6019381F70193FD859193FF81917F015F
:1014C000882309F4BAC1853239F493FD859193FFDD
:1014D00081917F01853229F4B60190E00E94500C81
:1014E000E7CF912C212C312CFFE1F315D8F08B3272
:1014F00079F038F4803279F08332A1F4232D206121
:101500001DC08D3261F0803369F4232D216016C037
:10151000832D8260382EE32DE4603E2E2AC0F32D09
:10152000F8601DC037FC2DC020ED280F2A3040F098
:101530008E32B9F436FC81C1232D2064322E19C0BD
:1015400036FE06C08AE0989E200D1124922E11C00E
:10155000EAE02E9E200D1124222EF32DF0623F2E64
:1015600008C08C3621F4832D8068382E02C088365E
:1015700041F4F70193FD859193FF81917F018111E2
:10158000B3CF982F9F7D9554933028F40C5F1F4F55
:101590009FE399830DC0833631F0833771F0833533
:1015A00009F059C021C0F801808189830E5F1F4F67
:1015B00088248394912C530113C02801F2E04F0E2C
:1015C000511CF801A080B18036FE03C0692D70E087
:1015D00002C06FEF7FEFC5010E94350C4C01820104
:1015E000F32DFF773F2E16C0280122E0420E511C3A
:1015F000F801A080B18036FE03C0692D70E002C002
:101600006FEF7FEFC5010E942A0C4C01F32DF068AB
:101610003F2E820133FC1BC0822D90E08816990674
:10162000B0F4B60180E290E00E94500C2A94F4CF0E
:10163000F50137FC859137FE81915F01B60190E09D
:101640000E94500C21102A9421E0821A91088114E2
:10165000910471F7E8C0843611F0893641F5F8013C
:1016600037FE07C060817181828193810C5F1F4FBB
:1016700008C060817181072E000C880B990B0E5FEA
:101680001F4FF32DFF763F2E97FF09C09095809551
:10169000709561957F4F8F4F9F4FF0683F2E2AE0E6
:1016A00030E0A3010E948C0C882E861845C0853737
:1016B00031F4232D2F7EB22E2AE030E025C0932D69
:1016C000997FB92E8F36C1F018F4883579F0B5C0FE
:1016D000803719F0883721F0B0C0E92FE061BE2EC5
:1016E000B4FE0DC0FB2DF460BF2E09C034FE0AC04D
:1016F000292F2660B22E06C028E030E005C020E188
:1017000030E002C020E132E0F801B7FE07C060819E
:101710007181828193810C5F1F4F06C0608171814E
:1017200080E090E00E5F1F4FA3010E948C0C882E7A
:101730008618FB2DFF773F2E36FE0DC0232D2E7F02
:10174000A22E891458F434FE0BC032FC09C0832D3C
:101750008E7EA82E05C0B82CA32C03C0B82C01C0C7
:10176000B92CA4FE0FC0FE01E80DF11D808180336D
:1017700021F49A2D997EA92E09C0A2FE06C0B39429
:10178000B39404C08A2D867809F0B394A3FC11C0E9
:10179000A0FE06C0B21488F4280C922C9B180EC030
:1017A000B21460F4B60180E290E00E94500CB39451
:1017B000F7CFB21418F42B1802C0982C212CA4FED9
:1017C00010C0B60180E390E00E94500CA2FE17C04A
:1017D000A1FC03C088E790E002C088E590E0B60174
:1017E0000CC08A2D867859F0A1FE02C08BE201C0A0
:1017F00080E2A7FC8DE2B60190E00E94500C8914B3
:1018000038F4B60180E390E00E94500C9A94F7CF30
:101810008A94F301E80DF11D8081B60190E00E94E9
:10182000500C8110F5CF222009F442CEB60180E29F
:1018300090E00E94500C2A94F6CFF60186819781A1
:1018400002C08FEF9FEF2B96E2E10C94060D9927D3
:1018500088270895FC010590615070400110D8F769
:10186000809590958E0F9F1F0895FC0161507040E8
:1018700001900110D8F7809590958E0F9F1F0895C5
:10188000DC01FC01672F71917723E1F7329704C0E7
:101890007C916D9370836291AE17BF07C8F3089572
:1018A0000F931F93CF93DF93FB01238121FD03C08F
:1018B0008FEF9FEF2CC022FF16C0468157812481F5
:1018C00035814217530744F4A081B1819D012F5FF8
:1018D0003F4F318320838C93268137812F5F3F4F89
:1018E0003783268314C08B01EC01FB010084F18552
:1018F000E02D0995892BE1F6D80116968D919C91E2
:101900001797019617969C938E931697CE01DF91A9
:10191000CF911F910F910895FA01AA27283051F114
:10192000203181F1E8946F936E7F6E5F7F4F8F4F10
:101930009F4FAF4FB1E03ED0B4E03CD0670F781F6F
:10194000891F9A1FA11D680F791F8A1F911DA11D54
:101950006A0F711D811D911DA11D20D009F468948D
:101960003F912AE0269F11243019305D3193DEF635
:10197000CF010895462F4770405D4193B3E00FD0EB
:10198000C9F7F6CF462F4F70405D4A3318F0495DD6
:1019900031FD4052419302D0A9F7EACFB4E0A695B9
:1019A0009795879577956795BA95C9F700976105DB
:1019B000710508959B01AC010A2E06945795479531
:1019C00037952795BA95C9F7620F731F841F951F26
:1019D000A01D08952F923F924F925F926F927F9237
:1019E0008F929F92AF92BF92CF92DF92EF92FF922F
:1019F0000F931F93CF93DF93CDB7DEB7CA1BDB0BDB
:101A00000FB6F894DEBF0FBECDBF09942A8839887F
:101A100048885F846E847D848C849B84AA84B98486
:101A2000C884DF80EE80FD800C811B81AA81B98192
:101A3000CE0FD11D0FB6F894DEBF0FBECDBFED01A6
:061A40000895F894FFCFA9
:101A4600446576696365206C6F737400256300577F
:101A560041524E494E472120496E70757420746973
:101A66006D6520616E642072656C617920617265B6
:101A760020756E617661696C61626C6521205573B3
:101A8600657220746861742068617320746861747B
:101A960020706572696F6420697320002530327585
:101AA6003A253032753A253032750054494D453A5B
:101AB6002000253032752F253032752F32302530F3
:101AC600327500444154453A2000484F5552004D66
:101AD600494E0053454300444159004D4E54480079
:101AE60059454152005345543A2000454E44494E0B
:101AF600473A200052454C4159204E554D424552D9
:041B06003A20000081
:00000001FF
